{
	"data": {
		"bytecode": {
			"linkReferences": {},
			"object": "608060405234801561001057600080fd5b5061102e806100206000396000f3fe60806040523480156200001157600080fd5b5060043610620000465760003560e01c80630ef721f0146200004b57806369cb39be146200006b578063d7c06919146200008b575b600080fd5b6200006960048036038101906200006391906200040f565b620000ad565b005b6200008960048036038101906200008391906200046b565b6200021c565b005b62000095620002cc565b604051620000a49190620005bb565b60405180910390f35b8173ffffffffffffffffffffffffffffffffffffffff16637f8f60656040518163ffffffff1660e01b815260040160206040518083038186803b158015620000f457600080fd5b505afa15801562000109573d6000803e3d6000fd5b505050506040513d601f19601f820116820180604052508101906200012f9190620003dd565b6200013957600080fd5b8173ffffffffffffffffffffffffffffffffffffffff1663a3ba119c826040518263ffffffff1660e01b8152600401620001749190620005fc565b600060405180830381600087803b1580156200018f57600080fd5b505af1158015620001a4573d6000803e3d6000fd5b505050508173ffffffffffffffffffffffffffffffffffffffff16637aa31769846040518263ffffffff1660e01b8152600401620001e39190620005df565b600060405180830381600087803b158015620001fe57600080fd5b505af115801562000213573d6000803e3d6000fd5b50505050505050565b6000838386888560405162000231906200035c565b6200024195949392919062000619565b604051809103906000f0801580156200025e573d6000803e3d6000fd5b5090506000819080600181540180825580915050600190039060005260206000200160009091909190916101000a81548173ffffffffffffffffffffffffffffffffffffffff021916908373ffffffffffffffffffffffffffffffffffffffff160217905550505050505050565b606060008054806020026020016040519081016040528092919081815260200182805480156200035257602002820191906000526020600020905b8160009054906101000a900473ffffffffffffffffffffffffffffffffffffffff1673ffffffffffffffffffffffffffffffffffffffff168152602001906001019080831162000307575b5050505050905090565b6107d8806200082183390190565b6000815190506200037b816200079e565b92915050565b6000813590506200039281620007b8565b92915050565b600081359050620003a981620007d2565b92915050565b600081359050620003c081620007ec565b92915050565b600081359050620003d78162000806565b92915050565b600060208284031215620003f657620003f562000799565b5b600062000406848285016200036a565b91505092915050565b6000806000606084860312156200042b576200042a62000799565b5b60006200043b86828701620003af565b93505060206200044e8682870162000381565b92505060406200046186828701620003c6565b9150509250925092565b600080600080600060a086880312156200048a576200048962000799565b5b60006200049a88828901620003af565b9550506020620004ad8882890162000398565b9450506040620004c088828901620003c6565b9350506060620004d388828901620003c6565b9250506080620004e688828901620003c6565b9150509295509295909350565b600062000501838362000577565b60208301905092915050565b60006200051a8262000686565b6200052681856200069e565b9350620005338362000676565b8060005b838110156200056a5781516200054e8882620004f3565b97506200055b8362000691565b92505060018101905062000537565b5085935050505092915050565b620005828162000735565b82525050565b620005938162000749565b82525050565b620005a4816200075d565b82525050565b620005b5816200070b565b82525050565b60006020820190508181036000830152620005d781846200050d565b905092915050565b6000602082019050620005f6600083018462000599565b92915050565b6000602082019050620006136000830184620005aa565b92915050565b600060a082019050620006306000830188620005aa565b6200063f6020830187620005aa565b6200064e604083018662000588565b6200065d606083018562000599565b6200066c6080830184620005aa565b9695505050505050565b6000819050602082019050919050565b600081519050919050565b6000602082019050919050565b600082825260208201905092915050565b6000620006bc8262000715565b9050919050565b60008115159050919050565b6000620006dc82620006af565b9050919050565b6000620006f082620006af565b9050919050565b60006200070482620006af565b9050919050565b6000819050919050565b600073ffffffffffffffffffffffffffffffffffffffff82169050919050565b6000620007428262000771565b9050919050565b6000620007568262000771565b9050919050565b60006200076a8262000771565b9050919050565b60006200077e8262000785565b9050919050565b6000620007928262000715565b9050919050565b600080fd5b620007a981620006c3565b8114620007b557600080fd5b50565b620007c381620006cf565b8114620007cf57600080fd5b50565b620007dd81620006e3565b8114620007e957600080fd5b50565b620007f781620006f7565b81146200080357600080fd5b50565b62000811816200070b565b81146200081d57600080fd5b5056fe608060405234801561001057600080fd5b506040516107d83803806107d883398181016040528101906100329190610199565b84600081905550836001819055506000600260006101000a81548160ff02191690831515021790555082600260016101000a81548173ffffffffffffffffffffffffffffffffffffffff021916908373ffffffffffffffffffffffffffffffffffffffff16021790555081600360006101000a81548173ffffffffffffffffffffffffffffffffffffffff021916908373ffffffffffffffffffffffffffffffffffffffff1602179055508060048190555081600560006101000a81548173ffffffffffffffffffffffffffffffffffffffff021916908373ffffffffffffffffffffffffffffffffffffffff16021790555061013361013d60201b60201c565b50505050506102be565b6001600260006101000a81548160ff021916908315150217905550565b60008151905061016981610279565b92915050565b60008151905061017e81610290565b92915050565b600081519050610193816102a7565b92915050565b600080600080600060a086880312156101b5576101b4610274565b5b60006101c388828901610184565b95505060206101d488828901610184565b94505060406101e58882890161015a565b93505060606101f68882890161016f565b925050608061020788828901610184565b9150509295509295909350565b600061021f82610254565b9050919050565b600061023182610214565b9050919050565b600061024382610214565b9050919050565b6000819050919050565b600073ffffffffffffffffffffffffffffffffffffffff82169050919050565b600080fd5b61028281610226565b811461028d57600080fd5b50565b61029981610238565b81146102a457600080fd5b50565b6102b08161024a565b81146102bb57600080fd5b50565b61050b806102cd6000396000f3fe608060405234801561001057600080fd5b506004361061009e5760003560e01c8063a3ba119c11610066578063a3ba119c14610137578063abceb10a14610153578063ad91363314610171578063c828371e1461018f578063e0c6190d146101ad5761009e565b80632b2e00d3146100a3578063439f5ac2146100c15780634979440a146100df5780637aa31769146100fd5780637f8f606514610119575b600080fd5b6100ab6101b7565b6040516100b891906103af565b60405180910390f35b6100c96101e1565b6040516100d691906103e5565b60405180910390f35b6100e76101eb565b6040516100f491906103e5565b60405180910390f35b610117600480360381019061011291906102fe565b6101f5565b005b610121610239565b60405161012e9190610394565b60405180910390f35b610151600480360381019061014c919061032b565b610250565b005b61015b61025a565b60405161016891906103ca565b60405180910390f35b610179610284565b60405161018691906103ca565b60405180910390f35b6101976102ae565b6040516101a491906103e5565b60405180910390f35b6101b56102b7565b005b6000600260019054906101000a900473ffffffffffffffffffffffffffffffffffffffff16905090565b6000600154905090565b6000600454905090565b80600560006101000a81548173ffffffffffffffffffffffffffffffffffffffff021916908373ffffffffffffffffffffffffffffffffffffffff16021790555050565b6000600260009054906101000a900460ff16905090565b8060048190555050565b6000600560009054906101000a900473ffffffffffffffffffffffffffffffffffffffff16905090565b6000600360009054906101000a900473ffffffffffffffffffffffffffffffffffffffff16905090565b60008054905090565b6001600260006101000a81548160ff021916908315150217905550565b6000813590506102e3816104a7565b92915050565b6000813590506102f8816104be565b92915050565b600060208284031215610314576103136104a2565b5b6000610322848285016102d4565b91505092915050565b600060208284031215610341576103406104a2565b5b600061034f848285016102e9565b91505092915050565b61036181610412565b82525050565b6103708161045a565b82525050565b61037f8161046c565b82525050565b61038e81610430565b82525050565b60006020820190506103a96000830184610358565b92915050565b60006020820190506103c46000830184610367565b92915050565b60006020820190506103df6000830184610376565b92915050565b60006020820190506103fa6000830184610385565b92915050565b600061040b8261043a565b9050919050565b60008115159050919050565b600061042982610400565b9050919050565b6000819050919050565b600073ffffffffffffffffffffffffffffffffffffffff82169050919050565b60006104658261047e565b9050919050565b60006104778261047e565b9050919050565b600061048982610490565b9050919050565b600061049b8261043a565b9050919050565b600080fd5b6104b08161041e565b81146104bb57600080fd5b50565b6104c781610430565b81146104d257600080fd5b5056fea26469706673582212206ca14cf0c298b3fe5a810fc3ce3d40ce06d7a28a83cc9f14cbd43b35e3eec24064736f6c63430008070033a26469706673582212208a6e96944bdd8064647a3a0d9e8066cfae3db99785026afee0797c26411f1a2464736f6c63430008070033",
			"opcodes": "PUSH1 0x80 PUSH1 0x40 MSTORE CALLVALUE DUP1 ISZERO PUSH2 0x10 JUMPI PUSH1 0x0 DUP1 REVERT JUMPDEST POP PUSH2 0x102E DUP1 PUSH2 0x20 PUSH1 0x0 CODECOPY PUSH1 0x0 RETURN INVALID PUSH1 0x80 PUSH1 0x40 MSTORE CALLVALUE DUP1 ISZERO PUSH3 0x11 JUMPI PUSH1 0x0 DUP1 REVERT JUMPDEST POP PUSH1 0x4 CALLDATASIZE LT PUSH3 0x46 JUMPI PUSH1 0x0 CALLDATALOAD PUSH1 0xE0 SHR DUP1 PUSH4 0xEF721F0 EQ PUSH3 0x4B JUMPI DUP1 PUSH4 0x69CB39BE EQ PUSH3 0x6B JUMPI DUP1 PUSH4 0xD7C06919 EQ PUSH3 0x8B JUMPI JUMPDEST PUSH1 0x0 DUP1 REVERT JUMPDEST PUSH3 0x69 PUSH1 0x4 DUP1 CALLDATASIZE SUB DUP2 ADD SWAP1 PUSH3 0x63 SWAP2 SWAP1 PUSH3 0x40F JUMP JUMPDEST PUSH3 0xAD JUMP JUMPDEST STOP JUMPDEST PUSH3 0x89 PUSH1 0x4 DUP1 CALLDATASIZE SUB DUP2 ADD SWAP1 PUSH3 0x83 SWAP2 SWAP1 PUSH3 0x46B JUMP JUMPDEST PUSH3 0x21C JUMP JUMPDEST STOP JUMPDEST PUSH3 0x95 PUSH3 0x2CC JUMP JUMPDEST PUSH1 0x40 MLOAD PUSH3 0xA4 SWAP2 SWAP1 PUSH3 0x5BB JUMP JUMPDEST PUSH1 0x40 MLOAD DUP1 SWAP2 SUB SWAP1 RETURN JUMPDEST DUP2 PUSH20 0xFFFFFFFFFFFFFFFFFFFFFFFFFFFFFFFFFFFFFFFF AND PUSH4 0x7F8F6065 PUSH1 0x40 MLOAD DUP2 PUSH4 0xFFFFFFFF AND PUSH1 0xE0 SHL DUP2 MSTORE PUSH1 0x4 ADD PUSH1 0x20 PUSH1 0x40 MLOAD DUP1 DUP4 SUB DUP2 DUP7 DUP1 EXTCODESIZE ISZERO DUP1 ISZERO PUSH3 0xF4 JUMPI PUSH1 0x0 DUP1 REVERT JUMPDEST POP GAS STATICCALL ISZERO DUP1 ISZERO PUSH3 0x109 JUMPI RETURNDATASIZE PUSH1 0x0 DUP1 RETURNDATACOPY RETURNDATASIZE PUSH1 0x0 REVERT JUMPDEST POP POP POP POP PUSH1 0x40 MLOAD RETURNDATASIZE PUSH1 0x1F NOT PUSH1 0x1F DUP3 ADD AND DUP3 ADD DUP1 PUSH1 0x40 MSTORE POP DUP2 ADD SWAP1 PUSH3 0x12F SWAP2 SWAP1 PUSH3 0x3DD JUMP JUMPDEST PUSH3 0x139 JUMPI PUSH1 0x0 DUP1 REVERT JUMPDEST DUP2 PUSH20 0xFFFFFFFFFFFFFFFFFFFFFFFFFFFFFFFFFFFFFFFF AND PUSH4 0xA3BA119C DUP3 PUSH1 0x40 MLOAD DUP3 PUSH4 0xFFFFFFFF AND PUSH1 0xE0 SHL DUP2 MSTORE PUSH1 0x4 ADD PUSH3 0x174 SWAP2 SWAP1 PUSH3 0x5FC JUMP JUMPDEST PUSH1 0x0 PUSH1 0x40 MLOAD DUP1 DUP4 SUB DUP2 PUSH1 0x0 DUP8 DUP1 EXTCODESIZE ISZERO DUP1 ISZERO PUSH3 0x18F JUMPI PUSH1 0x0 DUP1 REVERT JUMPDEST POP GAS CALL ISZERO DUP1 ISZERO PUSH3 0x1A4 JUMPI RETURNDATASIZE PUSH1 0x0 DUP1 RETURNDATACOPY RETURNDATASIZE PUSH1 0x0 REVERT JUMPDEST POP POP POP POP DUP2 PUSH20 0xFFFFFFFFFFFFFFFFFFFFFFFFFFFFFFFFFFFFFFFF AND PUSH4 0x7AA31769 DUP5 PUSH1 0x40 MLOAD DUP3 PUSH4 0xFFFFFFFF AND PUSH1 0xE0 SHL DUP2 MSTORE PUSH1 0x4 ADD PUSH3 0x1E3 SWAP2 SWAP1 PUSH3 0x5DF JUMP JUMPDEST PUSH1 0x0 PUSH1 0x40 MLOAD DUP1 DUP4 SUB DUP2 PUSH1 0x0 DUP8 DUP1 EXTCODESIZE ISZERO DUP1 ISZERO PUSH3 0x1FE JUMPI PUSH1 0x0 DUP1 REVERT JUMPDEST POP GAS CALL ISZERO DUP1 ISZERO PUSH3 0x213 JUMPI RETURNDATASIZE PUSH1 0x0 DUP1 RETURNDATACOPY RETURNDATASIZE PUSH1 0x0 REVERT JUMPDEST POP POP POP POP POP POP POP JUMP JUMPDEST PUSH1 0x0 DUP4 DUP4 DUP7 DUP9 DUP6 PUSH1 0x40 MLOAD PUSH3 0x231 SWAP1 PUSH3 0x35C JUMP JUMPDEST PUSH3 0x241 SWAP6 SWAP5 SWAP4 SWAP3 SWAP2 SWAP1 PUSH3 0x619 JUMP JUMPDEST PUSH1 0x40 MLOAD DUP1 SWAP2 SUB SWAP1 PUSH1 0x0 CREATE DUP1 ISZERO DUP1 ISZERO PUSH3 0x25E JUMPI RETURNDATASIZE PUSH1 0x0 DUP1 RETURNDATACOPY RETURNDATASIZE PUSH1 0x0 REVERT JUMPDEST POP SWAP1 POP PUSH1 0x0 DUP2 SWAP1 DUP1 PUSH1 0x1 DUP2 SLOAD ADD DUP1 DUP3 SSTORE DUP1 SWAP2 POP POP PUSH1 0x1 SWAP1 SUB SWAP1 PUSH1 0x0 MSTORE PUSH1 0x20 PUSH1 0x0 KECCAK256 ADD PUSH1 0x0 SWAP1 SWAP2 SWAP1 SWAP2 SWAP1 SWAP2 PUSH2 0x100 EXP DUP2 SLOAD DUP2 PUSH20 0xFFFFFFFFFFFFFFFFFFFFFFFFFFFFFFFFFFFFFFFF MUL NOT AND SWAP1 DUP4 PUSH20 0xFFFFFFFFFFFFFFFFFFFFFFFFFFFFFFFFFFFFFFFF AND MUL OR SWAP1 SSTORE POP POP POP POP POP POP POP JUMP JUMPDEST PUSH1 0x60 PUSH1 0x0 DUP1 SLOAD DUP1 PUSH1 0x20 MUL PUSH1 0x20 ADD PUSH1 0x40 MLOAD SWAP1 DUP2 ADD PUSH1 0x40 MSTORE DUP1 SWAP3 SWAP2 SWAP1 DUP2 DUP2 MSTORE PUSH1 0x20 ADD DUP3 DUP1 SLOAD DUP1 ISZERO PUSH3 0x352 JUMPI PUSH1 0x20 MUL DUP3 ADD SWAP2 SWAP1 PUSH1 0x0 MSTORE PUSH1 0x20 PUSH1 0x0 KECCAK256 SWAP1 JUMPDEST DUP2 PUSH1 0x0 SWAP1 SLOAD SWAP1 PUSH2 0x100 EXP SWAP1 DIV PUSH20 0xFFFFFFFFFFFFFFFFFFFFFFFFFFFFFFFFFFFFFFFF AND PUSH20 0xFFFFFFFFFFFFFFFFFFFFFFFFFFFFFFFFFFFFFFFF AND DUP2 MSTORE PUSH1 0x20 ADD SWAP1 PUSH1 0x1 ADD SWAP1 DUP1 DUP4 GT PUSH3 0x307 JUMPI JUMPDEST POP POP POP POP POP SWAP1 POP SWAP1 JUMP JUMPDEST PUSH2 0x7D8 DUP1 PUSH3 0x821 DUP4 CODECOPY ADD SWAP1 JUMP JUMPDEST PUSH1 0x0 DUP2 MLOAD SWAP1 POP PUSH3 0x37B DUP2 PUSH3 0x79E JUMP JUMPDEST SWAP3 SWAP2 POP POP JUMP JUMPDEST PUSH1 0x0 DUP2 CALLDATALOAD SWAP1 POP PUSH3 0x392 DUP2 PUSH3 0x7B8 JUMP JUMPDEST SWAP3 SWAP2 POP POP JUMP JUMPDEST PUSH1 0x0 DUP2 CALLDATALOAD SWAP1 POP PUSH3 0x3A9 DUP2 PUSH3 0x7D2 JUMP JUMPDEST SWAP3 SWAP2 POP POP JUMP JUMPDEST PUSH1 0x0 DUP2 CALLDATALOAD SWAP1 POP PUSH3 0x3C0 DUP2 PUSH3 0x7EC JUMP JUMPDEST SWAP3 SWAP2 POP POP JUMP JUMPDEST PUSH1 0x0 DUP2 CALLDATALOAD SWAP1 POP PUSH3 0x3D7 DUP2 PUSH3 0x806 JUMP JUMPDEST SWAP3 SWAP2 POP POP JUMP JUMPDEST PUSH1 0x0 PUSH1 0x20 DUP3 DUP5 SUB SLT ISZERO PUSH3 0x3F6 JUMPI PUSH3 0x3F5 PUSH3 0x799 JUMP JUMPDEST JUMPDEST PUSH1 0x0 PUSH3 0x406 DUP5 DUP3 DUP6 ADD PUSH3 0x36A JUMP JUMPDEST SWAP2 POP POP SWAP3 SWAP2 POP POP JUMP JUMPDEST PUSH1 0x0 DUP1 PUSH1 0x0 PUSH1 0x60 DUP5 DUP7 SUB SLT ISZERO PUSH3 0x42B JUMPI PUSH3 0x42A PUSH3 0x799 JUMP JUMPDEST JUMPDEST PUSH1 0x0 PUSH3 0x43B DUP7 DUP3 DUP8 ADD PUSH3 0x3AF JUMP JUMPDEST SWAP4 POP POP PUSH1 0x20 PUSH3 0x44E DUP7 DUP3 DUP8 ADD PUSH3 0x381 JUMP JUMPDEST SWAP3 POP POP PUSH1 0x40 PUSH3 0x461 DUP7 DUP3 DUP8 ADD PUSH3 0x3C6 JUMP JUMPDEST SWAP2 POP POP SWAP3 POP SWAP3 POP SWAP3 JUMP JUMPDEST PUSH1 0x0 DUP1 PUSH1 0x0 DUP1 PUSH1 0x0 PUSH1 0xA0 DUP7 DUP9 SUB SLT ISZERO PUSH3 0x48A JUMPI PUSH3 0x489 PUSH3 0x799 JUMP JUMPDEST JUMPDEST PUSH1 0x0 PUSH3 0x49A DUP9 DUP3 DUP10 ADD PUSH3 0x3AF JUMP JUMPDEST SWAP6 POP POP PUSH1 0x20 PUSH3 0x4AD DUP9 DUP3 DUP10 ADD PUSH3 0x398 JUMP JUMPDEST SWAP5 POP POP PUSH1 0x40 PUSH3 0x4C0 DUP9 DUP3 DUP10 ADD PUSH3 0x3C6 JUMP JUMPDEST SWAP4 POP POP PUSH1 0x60 PUSH3 0x4D3 DUP9 DUP3 DUP10 ADD PUSH3 0x3C6 JUMP JUMPDEST SWAP3 POP POP PUSH1 0x80 PUSH3 0x4E6 DUP9 DUP3 DUP10 ADD PUSH3 0x3C6 JUMP JUMPDEST SWAP2 POP POP SWAP3 SWAP6 POP SWAP3 SWAP6 SWAP1 SWAP4 POP JUMP JUMPDEST PUSH1 0x0 PUSH3 0x501 DUP4 DUP4 PUSH3 0x577 JUMP JUMPDEST PUSH1 0x20 DUP4 ADD SWAP1 POP SWAP3 SWAP2 POP POP JUMP JUMPDEST PUSH1 0x0 PUSH3 0x51A DUP3 PUSH3 0x686 JUMP JUMPDEST PUSH3 0x526 DUP2 DUP6 PUSH3 0x69E JUMP JUMPDEST SWAP4 POP PUSH3 0x533 DUP4 PUSH3 0x676 JUMP JUMPDEST DUP1 PUSH1 0x0 JUMPDEST DUP4 DUP2 LT ISZERO PUSH3 0x56A JUMPI DUP2 MLOAD PUSH3 0x54E DUP9 DUP3 PUSH3 0x4F3 JUMP JUMPDEST SWAP8 POP PUSH3 0x55B DUP4 PUSH3 0x691 JUMP JUMPDEST SWAP3 POP POP PUSH1 0x1 DUP2 ADD SWAP1 POP PUSH3 0x537 JUMP JUMPDEST POP DUP6 SWAP4 POP POP POP POP SWAP3 SWAP2 POP POP JUMP JUMPDEST PUSH3 0x582 DUP2 PUSH3 0x735 JUMP JUMPDEST DUP3 MSTORE POP POP JUMP JUMPDEST PUSH3 0x593 DUP2 PUSH3 0x749 JUMP JUMPDEST DUP3 MSTORE POP POP JUMP JUMPDEST PUSH3 0x5A4 DUP2 PUSH3 0x75D JUMP JUMPDEST DUP3 MSTORE POP POP JUMP JUMPDEST PUSH3 0x5B5 DUP2 PUSH3 0x70B JUMP JUMPDEST DUP3 MSTORE POP POP JUMP JUMPDEST PUSH1 0x0 PUSH1 0x20 DUP3 ADD SWAP1 POP DUP2 DUP2 SUB PUSH1 0x0 DUP4 ADD MSTORE PUSH3 0x5D7 DUP2 DUP5 PUSH3 0x50D JUMP JUMPDEST SWAP1 POP SWAP3 SWAP2 POP POP JUMP JUMPDEST PUSH1 0x0 PUSH1 0x20 DUP3 ADD SWAP1 POP PUSH3 0x5F6 PUSH1 0x0 DUP4 ADD DUP5 PUSH3 0x599 JUMP JUMPDEST SWAP3 SWAP2 POP POP JUMP JUMPDEST PUSH1 0x0 PUSH1 0x20 DUP3 ADD SWAP1 POP PUSH3 0x613 PUSH1 0x0 DUP4 ADD DUP5 PUSH3 0x5AA JUMP JUMPDEST SWAP3 SWAP2 POP POP JUMP JUMPDEST PUSH1 0x0 PUSH1 0xA0 DUP3 ADD SWAP1 POP PUSH3 0x630 PUSH1 0x0 DUP4 ADD DUP9 PUSH3 0x5AA JUMP JUMPDEST PUSH3 0x63F PUSH1 0x20 DUP4 ADD DUP8 PUSH3 0x5AA JUMP JUMPDEST PUSH3 0x64E PUSH1 0x40 DUP4 ADD DUP7 PUSH3 0x588 JUMP JUMPDEST PUSH3 0x65D PUSH1 0x60 DUP4 ADD DUP6 PUSH3 0x599 JUMP JUMPDEST PUSH3 0x66C PUSH1 0x80 DUP4 ADD DUP5 PUSH3 0x5AA JUMP JUMPDEST SWAP7 SWAP6 POP POP POP POP POP POP JUMP JUMPDEST PUSH1 0x0 DUP2 SWAP1 POP PUSH1 0x20 DUP3 ADD SWAP1 POP SWAP2 SWAP1 POP JUMP JUMPDEST PUSH1 0x0 DUP2 MLOAD SWAP1 POP SWAP2 SWAP1 POP JUMP JUMPDEST PUSH1 0x0 PUSH1 0x20 DUP3 ADD SWAP1 POP SWAP2 SWAP1 POP JUMP JUMPDEST PUSH1 0x0 DUP3 DUP3 MSTORE PUSH1 0x20 DUP3 ADD SWAP1 POP SWAP3 SWAP2 POP POP JUMP JUMPDEST PUSH1 0x0 PUSH3 0x6BC DUP3 PUSH3 0x715 JUMP JUMPDEST SWAP1 POP SWAP2 SWAP1 POP JUMP JUMPDEST PUSH1 0x0 DUP2 ISZERO ISZERO SWAP1 POP SWAP2 SWAP1 POP JUMP JUMPDEST PUSH1 0x0 PUSH3 0x6DC DUP3 PUSH3 0x6AF JUMP JUMPDEST SWAP1 POP SWAP2 SWAP1 POP JUMP JUMPDEST PUSH1 0x0 PUSH3 0x6F0 DUP3 PUSH3 0x6AF JUMP JUMPDEST SWAP1 POP SWAP2 SWAP1 POP JUMP JUMPDEST PUSH1 0x0 PUSH3 0x704 DUP3 PUSH3 0x6AF JUMP JUMPDEST SWAP1 POP SWAP2 SWAP1 POP JUMP JUMPDEST PUSH1 0x0 DUP2 SWAP1 POP SWAP2 SWAP1 POP JUMP JUMPDEST PUSH1 0x0 PUSH20 0xFFFFFFFFFFFFFFFFFFFFFFFFFFFFFFFFFFFFFFFF DUP3 AND SWAP1 POP SWAP2 SWAP1 POP JUMP JUMPDEST PUSH1 0x0 PUSH3 0x742 DUP3 PUSH3 0x771 JUMP JUMPDEST SWAP1 POP SWAP2 SWAP1 POP JUMP JUMPDEST PUSH1 0x0 PUSH3 0x756 DUP3 PUSH3 0x771 JUMP JUMPDEST SWAP1 POP SWAP2 SWAP1 POP JUMP JUMPDEST PUSH1 0x0 PUSH3 0x76A DUP3 PUSH3 0x771 JUMP JUMPDEST SWAP1 POP SWAP2 SWAP1 POP JUMP JUMPDEST PUSH1 0x0 PUSH3 0x77E DUP3 PUSH3 0x785 JUMP JUMPDEST SWAP1 POP SWAP2 SWAP1 POP JUMP JUMPDEST PUSH1 0x0 PUSH3 0x792 DUP3 PUSH3 0x715 JUMP JUMPDEST SWAP1 POP SWAP2 SWAP1 POP JUMP JUMPDEST PUSH1 0x0 DUP1 REVERT JUMPDEST PUSH3 0x7A9 DUP2 PUSH3 0x6C3 JUMP JUMPDEST DUP2 EQ PUSH3 0x7B5 JUMPI PUSH1 0x0 DUP1 REVERT JUMPDEST POP JUMP JUMPDEST PUSH3 0x7C3 DUP2 PUSH3 0x6CF JUMP JUMPDEST DUP2 EQ PUSH3 0x7CF JUMPI PUSH1 0x0 DUP1 REVERT JUMPDEST POP JUMP JUMPDEST PUSH3 0x7DD DUP2 PUSH3 0x6E3 JUMP JUMPDEST DUP2 EQ PUSH3 0x7E9 JUMPI PUSH1 0x0 DUP1 REVERT JUMPDEST POP JUMP JUMPDEST PUSH3 0x7F7 DUP2 PUSH3 0x6F7 JUMP JUMPDEST DUP2 EQ PUSH3 0x803 JUMPI PUSH1 0x0 DUP1 REVERT JUMPDEST POP JUMP JUMPDEST PUSH3 0x811 DUP2 PUSH3 0x70B JUMP JUMPDEST DUP2 EQ PUSH3 0x81D JUMPI PUSH1 0x0 DUP1 REVERT JUMPDEST POP JUMP INVALID PUSH1 0x80 PUSH1 0x40 MSTORE CALLVALUE DUP1 ISZERO PUSH2 0x10 JUMPI PUSH1 0x0 DUP1 REVERT JUMPDEST POP PUSH1 0x40 MLOAD PUSH2 0x7D8 CODESIZE SUB DUP1 PUSH2 0x7D8 DUP4 CODECOPY DUP2 DUP2 ADD PUSH1 0x40 MSTORE DUP2 ADD SWAP1 PUSH2 0x32 SWAP2 SWAP1 PUSH2 0x199 JUMP JUMPDEST DUP5 PUSH1 0x0 DUP2 SWAP1 SSTORE POP DUP4 PUSH1 0x1 DUP2 SWAP1 SSTORE POP PUSH1 0x0 PUSH1 0x2 PUSH1 0x0 PUSH2 0x100 EXP DUP2 SLOAD DUP2 PUSH1 0xFF MUL NOT AND SWAP1 DUP4 ISZERO ISZERO MUL OR SWAP1 SSTORE POP DUP3 PUSH1 0x2 PUSH1 0x1 PUSH2 0x100 EXP DUP2 SLOAD DUP2 PUSH20 0xFFFFFFFFFFFFFFFFFFFFFFFFFFFFFFFFFFFFFFFF MUL NOT AND SWAP1 DUP4 PUSH20 0xFFFFFFFFFFFFFFFFFFFFFFFFFFFFFFFFFFFFFFFF AND MUL OR SWAP1 SSTORE POP DUP2 PUSH1 0x3 PUSH1 0x0 PUSH2 0x100 EXP DUP2 SLOAD DUP2 PUSH20 0xFFFFFFFFFFFFFFFFFFFFFFFFFFFFFFFFFFFFFFFF MUL NOT AND SWAP1 DUP4 PUSH20 0xFFFFFFFFFFFFFFFFFFFFFFFFFFFFFFFFFFFFFFFF AND MUL OR SWAP1 SSTORE POP DUP1 PUSH1 0x4 DUP2 SWAP1 SSTORE POP DUP2 PUSH1 0x5 PUSH1 0x0 PUSH2 0x100 EXP DUP2 SLOAD DUP2 PUSH20 0xFFFFFFFFFFFFFFFFFFFFFFFFFFFFFFFFFFFFFFFF MUL NOT AND SWAP1 DUP4 PUSH20 0xFFFFFFFFFFFFFFFFFFFFFFFFFFFFFFFFFFFFFFFF AND MUL OR SWAP1 SSTORE POP PUSH2 0x133 PUSH2 0x13D PUSH1 0x20 SHL PUSH1 0x20 SHR JUMP JUMPDEST POP POP POP POP POP PUSH2 0x2BE JUMP JUMPDEST PUSH1 0x1 PUSH1 0x2 PUSH1 0x0 PUSH2 0x100 EXP DUP2 SLOAD DUP2 PUSH1 0xFF MUL NOT AND SWAP1 DUP4 ISZERO ISZERO MUL OR SWAP1 SSTORE POP JUMP JUMPDEST PUSH1 0x0 DUP2 MLOAD SWAP1 POP PUSH2 0x169 DUP2 PUSH2 0x279 JUMP JUMPDEST SWAP3 SWAP2 POP POP JUMP JUMPDEST PUSH1 0x0 DUP2 MLOAD SWAP1 POP PUSH2 0x17E DUP2 PUSH2 0x290 JUMP JUMPDEST SWAP3 SWAP2 POP POP JUMP JUMPDEST PUSH1 0x0 DUP2 MLOAD SWAP1 POP PUSH2 0x193 DUP2 PUSH2 0x2A7 JUMP JUMPDEST SWAP3 SWAP2 POP POP JUMP JUMPDEST PUSH1 0x0 DUP1 PUSH1 0x0 DUP1 PUSH1 0x0 PUSH1 0xA0 DUP7 DUP9 SUB SLT ISZERO PUSH2 0x1B5 JUMPI PUSH2 0x1B4 PUSH2 0x274 JUMP JUMPDEST JUMPDEST PUSH1 0x0 PUSH2 0x1C3 DUP9 DUP3 DUP10 ADD PUSH2 0x184 JUMP JUMPDEST SWAP6 POP POP PUSH1 0x20 PUSH2 0x1D4 DUP9 DUP3 DUP10 ADD PUSH2 0x184 JUMP JUMPDEST SWAP5 POP POP PUSH1 0x40 PUSH2 0x1E5 DUP9 DUP3 DUP10 ADD PUSH2 0x15A JUMP JUMPDEST SWAP4 POP POP PUSH1 0x60 PUSH2 0x1F6 DUP9 DUP3 DUP10 ADD PUSH2 0x16F JUMP JUMPDEST SWAP3 POP POP PUSH1 0x80 PUSH2 0x207 DUP9 DUP3 DUP10 ADD PUSH2 0x184 JUMP JUMPDEST SWAP2 POP POP SWAP3 SWAP6 POP SWAP3 SWAP6 SWAP1 SWAP4 POP JUMP JUMPDEST PUSH1 0x0 PUSH2 0x21F DUP3 PUSH2 0x254 JUMP JUMPDEST SWAP1 POP SWAP2 SWAP1 POP JUMP JUMPDEST PUSH1 0x0 PUSH2 0x231 DUP3 PUSH2 0x214 JUMP JUMPDEST SWAP1 POP SWAP2 SWAP1 POP JUMP JUMPDEST PUSH1 0x0 PUSH2 0x243 DUP3 PUSH2 0x214 JUMP JUMPDEST SWAP1 POP SWAP2 SWAP1 POP JUMP JUMPDEST PUSH1 0x0 DUP2 SWAP1 POP SWAP2 SWAP1 POP JUMP JUMPDEST PUSH1 0x0 PUSH20 0xFFFFFFFFFFFFFFFFFFFFFFFFFFFFFFFFFFFFFFFF DUP3 AND SWAP1 POP SWAP2 SWAP1 POP JUMP JUMPDEST PUSH1 0x0 DUP1 REVERT JUMPDEST PUSH2 0x282 DUP2 PUSH2 0x226 JUMP JUMPDEST DUP2 EQ PUSH2 0x28D JUMPI PUSH1 0x0 DUP1 REVERT JUMPDEST POP JUMP JUMPDEST PUSH2 0x299 DUP2 PUSH2 0x238 JUMP JUMPDEST DUP2 EQ PUSH2 0x2A4 JUMPI PUSH1 0x0 DUP1 REVERT JUMPDEST POP JUMP JUMPDEST PUSH2 0x2B0 DUP2 PUSH2 0x24A JUMP JUMPDEST DUP2 EQ PUSH2 0x2BB JUMPI PUSH1 0x0 DUP1 REVERT JUMPDEST POP JUMP JUMPDEST PUSH2 0x50B DUP1 PUSH2 0x2CD PUSH1 0x0 CODECOPY PUSH1 0x0 RETURN INVALID PUSH1 0x80 PUSH1 0x40 MSTORE CALLVALUE DUP1 ISZERO PUSH2 0x10 JUMPI PUSH1 0x0 DUP1 REVERT JUMPDEST POP PUSH1 0x4 CALLDATASIZE LT PUSH2 0x9E JUMPI PUSH1 0x0 CALLDATALOAD PUSH1 0xE0 SHR DUP1 PUSH4 0xA3BA119C GT PUSH2 0x66 JUMPI DUP1 PUSH4 0xA3BA119C EQ PUSH2 0x137 JUMPI DUP1 PUSH4 0xABCEB10A EQ PUSH2 0x153 JUMPI DUP1 PUSH4 0xAD913633 EQ PUSH2 0x171 JUMPI DUP1 PUSH4 0xC828371E EQ PUSH2 0x18F JUMPI DUP1 PUSH4 0xE0C6190D EQ PUSH2 0x1AD JUMPI PUSH2 0x9E JUMP JUMPDEST DUP1 PUSH4 0x2B2E00D3 EQ PUSH2 0xA3 JUMPI DUP1 PUSH4 0x439F5AC2 EQ PUSH2 0xC1 JUMPI DUP1 PUSH4 0x4979440A EQ PUSH2 0xDF JUMPI DUP1 PUSH4 0x7AA31769 EQ PUSH2 0xFD JUMPI DUP1 PUSH4 0x7F8F6065 EQ PUSH2 0x119 JUMPI JUMPDEST PUSH1 0x0 DUP1 REVERT JUMPDEST PUSH2 0xAB PUSH2 0x1B7 JUMP JUMPDEST PUSH1 0x40 MLOAD PUSH2 0xB8 SWAP2 SWAP1 PUSH2 0x3AF JUMP JUMPDEST PUSH1 0x40 MLOAD DUP1 SWAP2 SUB SWAP1 RETURN JUMPDEST PUSH2 0xC9 PUSH2 0x1E1 JUMP JUMPDEST PUSH1 0x40 MLOAD PUSH2 0xD6 SWAP2 SWAP1 PUSH2 0x3E5 JUMP JUMPDEST PUSH1 0x40 MLOAD DUP1 SWAP2 SUB SWAP1 RETURN JUMPDEST PUSH2 0xE7 PUSH2 0x1EB JUMP JUMPDEST PUSH1 0x40 MLOAD PUSH2 0xF4 SWAP2 SWAP1 PUSH2 0x3E5 JUMP JUMPDEST PUSH1 0x40 MLOAD DUP1 SWAP2 SUB SWAP1 RETURN JUMPDEST PUSH2 0x117 PUSH1 0x4 DUP1 CALLDATASIZE SUB DUP2 ADD SWAP1 PUSH2 0x112 SWAP2 SWAP1 PUSH2 0x2FE JUMP JUMPDEST PUSH2 0x1F5 JUMP JUMPDEST STOP JUMPDEST PUSH2 0x121 PUSH2 0x239 JUMP JUMPDEST PUSH1 0x40 MLOAD PUSH2 0x12E SWAP2 SWAP1 PUSH2 0x394 JUMP JUMPDEST PUSH1 0x40 MLOAD DUP1 SWAP2 SUB SWAP1 RETURN JUMPDEST PUSH2 0x151 PUSH1 0x4 DUP1 CALLDATASIZE SUB DUP2 ADD SWAP1 PUSH2 0x14C SWAP2 SWAP1 PUSH2 0x32B JUMP JUMPDEST PUSH2 0x250 JUMP JUMPDEST STOP JUMPDEST PUSH2 0x15B PUSH2 0x25A JUMP JUMPDEST PUSH1 0x40 MLOAD PUSH2 0x168 SWAP2 SWAP1 PUSH2 0x3CA JUMP JUMPDEST PUSH1 0x40 MLOAD DUP1 SWAP2 SUB SWAP1 RETURN JUMPDEST PUSH2 0x179 PUSH2 0x284 JUMP JUMPDEST PUSH1 0x40 MLOAD PUSH2 0x186 SWAP2 SWAP1 PUSH2 0x3CA JUMP JUMPDEST PUSH1 0x40 MLOAD DUP1 SWAP2 SUB SWAP1 RETURN JUMPDEST PUSH2 0x197 PUSH2 0x2AE JUMP JUMPDEST PUSH1 0x40 MLOAD PUSH2 0x1A4 SWAP2 SWAP1 PUSH2 0x3E5 JUMP JUMPDEST PUSH1 0x40 MLOAD DUP1 SWAP2 SUB SWAP1 RETURN JUMPDEST PUSH2 0x1B5 PUSH2 0x2B7 JUMP JUMPDEST STOP JUMPDEST PUSH1 0x0 PUSH1 0x2 PUSH1 0x1 SWAP1 SLOAD SWAP1 PUSH2 0x100 EXP SWAP1 DIV PUSH20 0xFFFFFFFFFFFFFFFFFFFFFFFFFFFFFFFFFFFFFFFF AND SWAP1 POP SWAP1 JUMP JUMPDEST PUSH1 0x0 PUSH1 0x1 SLOAD SWAP1 POP SWAP1 JUMP JUMPDEST PUSH1 0x0 PUSH1 0x4 SLOAD SWAP1 POP SWAP1 JUMP JUMPDEST DUP1 PUSH1 0x5 PUSH1 0x0 PUSH2 0x100 EXP DUP2 SLOAD DUP2 PUSH20 0xFFFFFFFFFFFFFFFFFFFFFFFFFFFFFFFFFFFFFFFF MUL NOT AND SWAP1 DUP4 PUSH20 0xFFFFFFFFFFFFFFFFFFFFFFFFFFFFFFFFFFFFFFFF AND MUL OR SWAP1 SSTORE POP POP JUMP JUMPDEST PUSH1 0x0 PUSH1 0x2 PUSH1 0x0 SWAP1 SLOAD SWAP1 PUSH2 0x100 EXP SWAP1 DIV PUSH1 0xFF AND SWAP1 POP SWAP1 JUMP JUMPDEST DUP1 PUSH1 0x4 DUP2 SWAP1 SSTORE POP POP JUMP JUMPDEST PUSH1 0x0 PUSH1 0x5 PUSH1 0x0 SWAP1 SLOAD SWAP1 PUSH2 0x100 EXP SWAP1 DIV PUSH20 0xFFFFFFFFFFFFFFFFFFFFFFFFFFFFFFFFFFFFFFFF AND SWAP1 POP SWAP1 JUMP JUMPDEST PUSH1 0x0 PUSH1 0x3 PUSH1 0x0 SWAP1 SLOAD SWAP1 PUSH2 0x100 EXP SWAP1 DIV PUSH20 0xFFFFFFFFFFFFFFFFFFFFFFFFFFFFFFFFFFFFFFFF AND SWAP1 POP SWAP1 JUMP JUMPDEST PUSH1 0x0 DUP1 SLOAD SWAP1 POP SWAP1 JUMP JUMPDEST PUSH1 0x1 PUSH1 0x2 PUSH1 0x0 PUSH2 0x100 EXP DUP2 SLOAD DUP2 PUSH1 0xFF MUL NOT AND SWAP1 DUP4 ISZERO ISZERO MUL OR SWAP1 SSTORE POP JUMP JUMPDEST PUSH1 0x0 DUP2 CALLDATALOAD SWAP1 POP PUSH2 0x2E3 DUP2 PUSH2 0x4A7 JUMP JUMPDEST SWAP3 SWAP2 POP POP JUMP JUMPDEST PUSH1 0x0 DUP2 CALLDATALOAD SWAP1 POP PUSH2 0x2F8 DUP2 PUSH2 0x4BE JUMP JUMPDEST SWAP3 SWAP2 POP POP JUMP JUMPDEST PUSH1 0x0 PUSH1 0x20 DUP3 DUP5 SUB SLT ISZERO PUSH2 0x314 JUMPI PUSH2 0x313 PUSH2 0x4A2 JUMP JUMPDEST JUMPDEST PUSH1 0x0 PUSH2 0x322 DUP5 DUP3 DUP6 ADD PUSH2 0x2D4 JUMP JUMPDEST SWAP2 POP POP SWAP3 SWAP2 POP POP JUMP JUMPDEST PUSH1 0x0 PUSH1 0x20 DUP3 DUP5 SUB SLT ISZERO PUSH2 0x341 JUMPI PUSH2 0x340 PUSH2 0x4A2 JUMP JUMPDEST JUMPDEST PUSH1 0x0 PUSH2 0x34F DUP5 DUP3 DUP6 ADD PUSH2 0x2E9 JUMP JUMPDEST SWAP2 POP POP SWAP3 SWAP2 POP POP JUMP JUMPDEST PUSH2 0x361 DUP2 PUSH2 0x412 JUMP JUMPDEST DUP3 MSTORE POP POP JUMP JUMPDEST PUSH2 0x370 DUP2 PUSH2 0x45A JUMP JUMPDEST DUP3 MSTORE POP POP JUMP JUMPDEST PUSH2 0x37F DUP2 PUSH2 0x46C JUMP JUMPDEST DUP3 MSTORE POP POP JUMP JUMPDEST PUSH2 0x38E DUP2 PUSH2 0x430 JUMP JUMPDEST DUP3 MSTORE POP POP JUMP JUMPDEST PUSH1 0x0 PUSH1 0x20 DUP3 ADD SWAP1 POP PUSH2 0x3A9 PUSH1 0x0 DUP4 ADD DUP5 PUSH2 0x358 JUMP JUMPDEST SWAP3 SWAP2 POP POP JUMP JUMPDEST PUSH1 0x0 PUSH1 0x20 DUP3 ADD SWAP1 POP PUSH2 0x3C4 PUSH1 0x0 DUP4 ADD DUP5 PUSH2 0x367 JUMP JUMPDEST SWAP3 SWAP2 POP POP JUMP JUMPDEST PUSH1 0x0 PUSH1 0x20 DUP3 ADD SWAP1 POP PUSH2 0x3DF PUSH1 0x0 DUP4 ADD DUP5 PUSH2 0x376 JUMP JUMPDEST SWAP3 SWAP2 POP POP JUMP JUMPDEST PUSH1 0x0 PUSH1 0x20 DUP3 ADD SWAP1 POP PUSH2 0x3FA PUSH1 0x0 DUP4 ADD DUP5 PUSH2 0x385 JUMP JUMPDEST SWAP3 SWAP2 POP POP JUMP JUMPDEST PUSH1 0x0 PUSH2 0x40B DUP3 PUSH2 0x43A JUMP JUMPDEST SWAP1 POP SWAP2 SWAP1 POP JUMP JUMPDEST PUSH1 0x0 DUP2 ISZERO ISZERO SWAP1 POP SWAP2 SWAP1 POP JUMP JUMPDEST PUSH1 0x0 PUSH2 0x429 DUP3 PUSH2 0x400 JUMP JUMPDEST SWAP1 POP SWAP2 SWAP1 POP JUMP JUMPDEST PUSH1 0x0 DUP2 SWAP1 POP SWAP2 SWAP1 POP JUMP JUMPDEST PUSH1 0x0 PUSH20 0xFFFFFFFFFFFFFFFFFFFFFFFFFFFFFFFFFFFFFFFF DUP3 AND SWAP1 POP SWAP2 SWAP1 POP JUMP JUMPDEST PUSH1 0x0 PUSH2 0x465 DUP3 PUSH2 0x47E JUMP JUMPDEST SWAP1 POP SWAP2 SWAP1 POP JUMP JUMPDEST PUSH1 0x0 PUSH2 0x477 DUP3 PUSH2 0x47E JUMP JUMPDEST SWAP1 POP SWAP2 SWAP1 POP JUMP JUMPDEST PUSH1 0x0 PUSH2 0x489 DUP3 PUSH2 0x490 JUMP JUMPDEST SWAP1 POP SWAP2 SWAP1 POP JUMP JUMPDEST PUSH1 0x0 PUSH2 0x49B DUP3 PUSH2 0x43A JUMP JUMPDEST SWAP1 POP SWAP2 SWAP1 POP JUMP JUMPDEST PUSH1 0x0 DUP1 REVERT JUMPDEST PUSH2 0x4B0 DUP2 PUSH2 0x41E JUMP JUMPDEST DUP2 EQ PUSH2 0x4BB JUMPI PUSH1 0x0 DUP1 REVERT JUMPDEST POP JUMP JUMPDEST PUSH2 0x4C7 DUP2 PUSH2 0x430 JUMP JUMPDEST DUP2 EQ PUSH2 0x4D2 JUMPI PUSH1 0x0 DUP1 REVERT JUMPDEST POP JUMP INVALID LOG2 PUSH5 0x6970667358 0x22 SLT KECCAK256 PUSH13 0xA14CF0C298B3FE5A810FC3CE3D BLOCKHASH 0xCE MOD 0xD7 LOG2 DUP11 DUP4 0xCC SWAP16 EQ 0xCB 0xD4 EXTCODESIZE CALLDATALOAD 0xE3 0xEE 0xC2 BLOCKHASH PUSH5 0x736F6C6343 STOP ADDMOD SMOD STOP CALLER LOG2 PUSH5 0x6970667358 0x22 SLT KECCAK256 DUP11 PUSH15 0x96944BDD8064647A3A0D9E8066CFAE RETURNDATASIZE 0xB9 SWAP8 DUP6 MUL PUSH11 0xFEE0797C26411F1A246473 PUSH16 0x6C634300080700330000000000000000 "
		},
		"gasEstimates": {
			"creation": {
				"codeDepositCost": "828400",
				"executionCost": "864",
				"totalCost": "829264"
			},
			"external": {
				"bid(address,address,int256)": "infinite",
				"createAuction(address,address,int256,int256,int256)": "infinite",
				"getAuctions()": "infinite"
			}
		},
		"methodIdentifiers": {
			"bid(address,address,int256)": "0ef721f0",
			"createAuction(address,address,int256,int256,int256)": "69cb39be",
			"getAuctions()": "d7c06919"
		}
	},
	"abi": [
		{
			"inputs": [
				{
					"internalType": "contract User",
					"name": "u",
					"type": "address"
				},
				{
					"internalType": "contract Auction",
					"name": "a",
					"type": "address"
				},
				{
					"internalType": "int256",
					"name": "bidPrice",
					"type": "int256"
				}
			],
			"name": "bid",
			"outputs": [],
			"stateMutability": "nonpayable",
			"type": "function"
		},
		{
			"inputs": [
				{
					"internalType": "contract User",
					"name": "u",
					"type": "address"
				},
				{
					"internalType": "contract Item",
					"name": "i",
					"type": "address"
				},
				{
					"internalType": "int256",
					"name": "_startTime",
					"type": "int256"
				},
				{
					"internalType": "int256",
					"name": "_endtime",
					"type": "int256"
				},
				{
					"internalType": "int256",
					"name": "minPrice",
					"type": "int256"
				}
			],
			"name": "createAuction",
			"outputs": [],
			"stateMutability": "nonpayable",
			"type": "function"
		},
		{
			"inputs": [],
			"name": "getAuctions",
			"outputs": [
				{
					"internalType": "contract Auction[]",
					"name": "",
					"type": "address[]"
				}
			],
			"stateMutability": "view",
			"type": "function"
		}
	]
}